{
  "contractName": "Allowlist",
  "abi": [
    {
      "constant": false,
      "inputs": [
        {
          "internalType": "string",
          "name": "_uuid",
          "type": "string"
        }
      ],
      "name": "_createAllowlister",
      "outputs": [],
      "payable": false,
      "stateMutability": "nonpayable",
      "type": "function"
    }
  ],
  "bytecode": "0x608060405234801561001057600080fd5b5061026d806100206000396000f3fe608060405234801561001057600080fd5b506004361061002b5760003560e01c80630caa58e014610030575b600080fd5b6100e96004803603602081101561004657600080fd5b810190808035906020019064010000000081111561006357600080fd5b82018360208201111561007557600080fd5b8035906020019184600183028401116401000000008311171561009757600080fd5b91908080601f016020809104026020016040519081016040528093929190818152602001838380828437600081840152601f19601f8201169050808301925050505050505091929192905050506100eb565b005b60016000604051806060016040528084815260200184815260200184815250908060018154018082558091505090600182039060005260206000209060030201600090919290919091506000820151816000019080519060200190610151929190610193565b50602082015181600101908051906020019061016e929190610193565b50604082015181600201908051906020019061018b929190610193565b505050505050565b828054600181600116156101000203166002900490600052602060002090601f016020900481019282601f106101d457805160ff1916838001178555610202565b82800160010185558215610202579182015b828111156102015782518255916020019190600101906101e6565b5b50905061020f9190610213565b5090565b61023591905b80821115610231576000816000905550600101610219565b5090565b9056fea265627a7a72315820a4540e0893b1516aff6f17e04ab6573ca39026438974c9c42232dc527d2fd0ab64736f6c63430005100032",
  "source": "pragma solidity ^0.5.0;\n\ncontract Allowlist {\n    // all are going to be set to uuid value in smart contract, so declare as same type\n\tstruct allowlister {\n\t\tstring f_name;\n\t\tstring l_name;\n\t\tstring wallet_address;\n\t}\n\n\tallowlister[] allowlisters; // array of all allowlisters\n\n\tfunction _createAllowlister (string memory _uuid) public {\n\t\tallowlisters.push(allowlister({\n\t\t\tf_name: _uuid,\n\t\t\tl_name: _uuid,\n\t\t\twallet_address: _uuid\n\t\t})) -1;\n\t}\n}",
  "sourcePath": "/Users/ashleyhuynh/Documents/polygon-fauna-app/contracts/Allowlist.sol",
  "compiler": {
    "name": "solc",
    "version": "0.5.16+commit.9c3226ce.Emscripten.clang"
  },
  "schemaVersion": "3.4.4",
  "updatedAt": "2022-01-22T23:02:48.723Z",
  "networkType": "ethereum",
  "devdoc": {
    "methods": {}
  },
  "userdoc": {
    "methods": {}
  }
}