{
  "contractName": "WhitelistForm",
  "abi": [
    {
      "constant": false,
      "inputs": [
        {
          "internalType": "string",
          "name": "_uuid",
          "type": "string"
        }
      ],
      "name": "_createWhitelister",
      "outputs": [],
      "payable": false,
      "stateMutability": "nonpayable",
      "type": "function"
    }
  ],
  "bytecode": "0x608060405234801561001057600080fd5b50610290806100206000396000f3fe608060405234801561001057600080fd5b506004361061002b5760003560e01c80635e80c93b14610030575b600080fd5b6100e96004803603602081101561004657600080fd5b810190808035906020019064010000000081111561006357600080fd5b82018360208201111561007557600080fd5b8035906020019184600183028401116401000000008311171561009757600080fd5b91908080601f016020809104026020016040519081016040528093929190818152602001838380828437600081840152601f19601f8201169050808301925050505050505091929192905050506100eb565b005b600160006040518060800160405280848152602001848152602001848152602001848152509080600181540180825580915050906001820390600052602060002090600402016000909192909190915060008201518160000190805190602001906101579291906101b6565b5060208201518160010190805190602001906101749291906101b6565b5060408201518160020190805190602001906101919291906101b6565b5060608201518160030190805190602001906101ae9291906101b6565b505050505050565b828054600181600116156101000203166002900490600052602060002090601f016020900481019282601f106101f757805160ff1916838001178555610225565b82800160010185558215610225579182015b82811115610224578251825591602001919060010190610209565b5b5090506102329190610236565b5090565b61025891905b8082111561025457600081600090555060010161023c565b5090565b9056fea265627a7a72315820fccf309485cf518433bb95052725a76ccd1d49256702091d2d7c8cd15b6bab2b64736f6c63430005100032",
  "source": "pragma solidity ^0.5.0;\n\ncontract WhitelistForm {\n    // all are going to be set to uuid value in smart contract, so declare as same type\n\tstruct whitelister {\n\t\tstring uuid;\n\t\tstring f_name;\n\t\tstring l_name;\n\t\tstring wallet_address;\n\t}\n\n\twhitelister[] whitelisters; // array of all whitelisters\n\n\tfunction _createWhitelister (string memory _uuid) public {\n\t\twhitelisters.push(whitelister({\n\t\t\tuuid: _uuid,\n\t\t\tf_name: _uuid,\n\t\t\tl_name: _uuid,\n\t\t\twallet_address: _uuid\n\t\t})) -1;\n\t}\n}",
  "sourcePath": "/Users/ashleyhuynh/Documents/polygon-fauna-app/contracts/WhitelistForm.sol",
  "compiler": {
    "name": "solc",
    "version": "0.5.16+commit.9c3226ce.Emscripten.clang"
  },
  "schemaVersion": "3.4.4",
  "updatedAt": "2022-01-19T01:25:36.161Z",
  "networkType": "ethereum",
  "devdoc": {
    "methods": {}
  },
  "userdoc": {
    "methods": {}
  }
}